:100000000C9434000C9446000C9446000C9446006A
:100010000C9446000C9446000C9446000C94460048
:100020000C9446000C9446000C9446000C94E60098
:100030000C9446000C9446000C9446000C94460028
:100040000C9446000C9446000C9446000C94460018
:100050000C9446000C9446000C9446000C94460008
:100060000C9446000C94460011241FBECFEFD8E03C
:10007000DEBFCDBF21E0A0E0B1E001C01D92A43001
:10008000B207E1F70E940C010C9486020C94000068
:10009000CF93DF93FC01909100019130B9F028F0EB
:1000A0009230F1F0933099F166C08281811104C0E1
:1000B00085B1806485B903C085B1806885B985B193
:1000C000897F85B981E08093000155C085B18F7328
:1000D00085B985B1826085B982E0809300014BC00B
:1000E0008281811107C085B18F7B85B985B1806818
:1000F00085B906C085B18F7785B985B1806485B92A
:1001000085B1897F85B983E08093000134C0EF0118
:1001100085B18F7385B985B18D7F85B985B18460CF
:1001200085B9109200018281811113C060817181B3
:10013000072E000C880B990B0E94B90126E636E6C3
:1001400046EE5FE30E9415010E9481017983688376
:1001500012C060817181072E000C880B990B0E94E0
:10016000B90126E636E646EE5FE30E9414010E94DE
:10017000810179836883DF91CF910895CF93DF93D5
:10018000EB01E1E8F0E090819C609083EFE6F0E025
:1001900090819260908320E030E0382F330F40E070
:1001A00050E060E074E284EF90E00E94450221504C
:1001B0003109309389002093880084B1866C84B91A
:1001C000198218821A82DF91CF9108951F920F929F
:1001D0000FB60F9211242F933F934F935F936F931A
:1001E0007F938F939F93AF93BF93EF93FF9381E0A0
:1001F00091E00E944800FF91EF91BF91AF919F91D4
:100200008F917F916F915F914F913F912F910F90BF
:100210000FBE0F901F90189561E071E088E790E0A5
:100220000E94BE007894FFCF5058BB27AA270E9497
:100230002C010C940B020E94FD0138F00E94040274
:1002400020F039F49F3F19F426F40C94FA010EF4CF
:10025000E095E7FB0C94F401E92F0E941C0258F38F
:10026000BA17620773078407950720F079F4A6F59B
:100270000C943E020EF4E0950B2EBA2FA02D0B012C
:10028000B90190010C01CA01A0011124FF27591BDB
:1002900099F0593F50F4503E68F11A16F040A22FE1
:1002A000232F342F4427585FF3CF46953795279552
:1002B000A795F0405395C9F77EF41F16BA0B620B51
:1002C000730B840BBAF09150A1F0FF0FBB1F661F98
:1002D000771F881FC2F70EC0BA0F621F731F841FDB
:1002E00048F4879577956795B795F7959E3F08F001
:1002F000B0CF9395880F08F09927EE0F97958795C3
:1003000008950E9488016894B1110C943F020895E9
:100310000E94240288F09F5798F0B92F9927B7516F
:10032000B0F0E1F0660F771F881F991F1AF0BA9599
:10033000C9F714C0B13091F00E943E02B1E00895B7
:100340000C943E02672F782F8827B85F39F0B93FA9
:10035000CCF3869577956795B395D9F73EF490954C
:100360008095709561957F4F8F4F9F4F0895E894CA
:1003700009C097FB3EF490958095709561957F4FED
:100380008F4F9F4F9923A9F0F92F96E9BB2793959B
:10039000F695879577956795B795F111F8CFFAF4AB
:1003A000BB0F11F460FF1BC06F5F7F4F8F4F9F4FDC
:1003B00016C0882311F096E911C0772321F09EE83A
:1003C000872F762F05C0662371F096E8862F70E0A0
:1003D00060E02AF09A95660F771F881FDAF7880F7A
:1003E0009695879597F9089597F99F6780E870E04B
:1003F00060E008959FEF80EC089500240A9416169B
:10040000170618060906089500240A941216130602
:10041000140605060895092E0394000C11F4882390
:1004200052F0BB0F40F4BF2B11F460FF04C06F5FAC
:100430007F4F8F4F9F4F089557FD9058440F551F82
:1004400059F05F3F71F04795880F97FB991F61F056
:100450009F3F79F087950895121613061406551FCD
:10046000F2CF4695F1DF08C0161617061806991F39
:10047000F1CF86957105610508940895E894BB272E
:1004800066277727CB0197F90895052E97FB1EF471
:1004900000940E945C0257FD07D00E94640207FC92
:1004A00003D04EF40C945C02509540953095219504
:1004B0003F4F4F4F5F4F0895909580957095619590
:1004C0007F4F8F4F9F4F0895A1E21A2EAA1BBB1B8F
:1004D000FD010DC0AA1FBB1FEE1FFF1FA217B30710
:1004E000E407F50720F0A21BB30BE40BF50B661F26
:1004F000771F881F991F1A9469F7609570958095EA
:1005000090959B01AC01BD01CF010895F894FFCFF8
:00000001FF
